:100000000C9434000C9451000C9451000C94510049
:100010000C9451000C9451000C9451000C9451001C
:100020000C9451000C9437030C9451000C94510023
:100030000C9451000C9451000C9451000C945100FC
:100040000C9451000C9451000C94A4010C940A03DC
:100050000C9451000C9451000C9451000C945100DC
:100060000C9451000C94510011241FBECFEFD8E026
:10007000DEBFCDBF11E0A0E0B1E0E0EAF7E002C0F2
:1000800005900D92A030B107D9F721E0A0E0B1E0D2
:1000900001C01D92A635B207E1F70E9480000C94C2
:1000A000CE030C9400000E9493008823E1F308958E
:1000B0008091150181110EC081E08093150160E8E7
:1000C00075E280E090E00E945B0260E286E191E0F0
:1000D0000C94A101089590911501992349F0809302
:1000E000360161E086E391E00E9407030C9453001F
:1000F000089584E70E946B0088EE93E00C947F03E0
:100100000E9458000E947900FDCFE1ECF0E0808170
:100110008F7D808308952091010181E090910301FA
:10012000291380E008950E948B000895282F30E065
:10013000F901EE0FFF1F43E0220F331F4A95E1F74D
:10014000E20FF31FE050FF4F4085518541155105E7
:1001500009F452C0282F30E0F901EE0FFF1FB3E081
:10016000220F331FBA95E1F7E20FF31FE050FF4F64
:100170007281282F30E0F901EE0FFF1F93E0220F6C
:10018000331F9A95E1F7E20FF31FE050FF4F948180
:10019000791790F5282F30E0F901EE0FFF1FA3E04B
:1001A000220F331FAA95E1F7E20FF31FE050FF4F34
:1001B0009281490F511DFA016083282F30E0F90127
:1001C000EE0FFF1F63E0220F331F6A95E1F7E20F86
:1001D000F31FE050FF4F92819F5F282F30E0F9011D
:1001E000EE0FFF1F43E0220F331F4A95E1F7E20FA6
:1001F000F31FE050FF4F9283282F30E0F901EE0FFC
:10020000FF1FA3E0220F331FAA95E1F7E20FF31FB0
:10021000E050FF4F4281282F30E0F901EE0FFF1F21
:1002200063E0220F331F6A95E1F7E20FF31FE050FE
:10023000FF4F9481491701F5282F30E0F901EE0FA7
:10024000FF1F43E0220F331F4A95E1F7E20FF31F30
:10025000E050FF4F9581992379F0282F30E0F90184
:10026000EE0FFF1F83E0220F331F8A95E1F7E20FA5
:10027000F31FE050FF4F128208959091C1009F77C5
:100280009093C100A82FB0E0FD01EE0FFF1F93E097
:10029000AA0FBB1F9A95E1F7EA0FFB1FE050FF4F33
:1002A00071876087682F70E0FB01EE0FFF1F53E03E
:1002B000660F771F5A95E1F7E60FF71FE050FF4FE3
:1002C0001282682F70E0FB01EE0FFF1F93E0660FB4
:1002D000771F9A95E1F7E60FF71FE050FF4F448331
:1002E000482F50E0FA01EE0FFF1FA3E0440F551F07
:1002F000AA95E1F7E40FF51FE050FF4F2583282F63
:1003000030E0F901EE0FFF1F63E0220F331F6A9503
:10031000E1F7E20FF31FE050FF4F8081882329F4BB
:100320008091C10080688093C100089521E00E94FF
:100330003D0108959C01462F80E0B9010E9496017D
:1003400008950E949A0108951F920F920FB60F927E
:1003500011242F933F934F935F936F937F938F93CA
:100360009F93AF93BF93EF93FF936091C60080E09C
:100370000E949600FF91EF91BF91AF919F918F9155
:100380007F916F915F914F913F912F910F900FBE91
:100390000F901F901895282F30E0F901EE0FFF1FE6
:1003A00093E0220F331F9A95E1F7E20FF31FE0501D
:1003B000FF4F2681378121153105B9F1282F30E013
:1003C000F901EE0FFF1FA3E0220F331FAA95E1F7FB
:1003D000E20FF31FE050FF4F4181282F30E0F90179
:1003E000EE0FFF1F63E0220F331F6A95E1F7E20F64
:1003F000F31FE050FF4F93814917B8F4282F30E0E6
:10040000F901EE0FFF1F43E0220F331F4A95E1F77A
:10041000E20FF31FE050FF4F8081882331F4809179
:10042000C10080628093C10008950E9485000895F4
:10043000282F30E0F901EE0FFF1F53E0220F331F8A
:100440005A95E1F7E20FF31FE050FF4F9081992397
:1004500011F498E901C098E19093C1000E94CB018A
:1004600078940895EF92FF920F931F937B018C0174
:1004700080E00E941802C801B70128EF3FEF4FEF5C
:100480005FEF0E9482036050734D8E4C9E4FA80117
:100490009701E4E0220F331F441F551FEA95D1F75F
:1004A0000E9492033093C5002093C4001F910F91C6
:1004B000FF90EF9008950E9432020895282F30E0B7
:1004C000F901EE0FFF1F73E0220F331F7A95E1F75A
:1004D000E20FF31FE050FF4F468157814115510550
:1004E00009F458C0282F30E0F901EE0FFF1F93E008
:1004F000220F331F9A95E1F7E20FF31FE050FF4FF1
:100500006181282F30E0F901EE0FFF1FA3E0220FD9
:10051000331FAA95E1F7E20FF31FE050FF4F9381DD
:100520006917C0F59091C00095FF34C0282F30E0C6
:10053000F901EE0FFF1F63E0220F331F6A95E1F709
:10054000E20FF31FE050FF4F9181490F511DFA0157
:1005500090819093C600282F30E0F901EE0FFF1F25
:1005600093E0220F331F9A95E1F7E20FF31FE0505B
:10057000FF4F91819F5F282F30E0F901EE0FFF1FA1
:10058000A3E0220F331FAA95E1F7E20FF31FE0501B
:10059000FF4F91830E94CB010895A0E0B1E0282F86
:1005A00030E0F901EE0FFF1F93E0220F331F9A9501
:1005B000E1F7E20FF31FEA0FFB1F77836683282F13
:1005C00030E0F901EE0FFF1F93E0220F331F9A95E1
:1005D000E1F7E20FF31FEA0FFB1F1182282F30E033
:1005E000F901EE0FFF1F63E0220F331F6A95E1F759
:1005F000E20FF31FEA0FFB1F43830E94CB01089514
:100600009C01462F80E0B9010E94CD0208950E940E
:10061000000308951F920F920FB60F9211242F938B
:100620003F934F935F936F937F938F939F93AF937A
:10063000BF93EF93FF9380E00E945E02FF91EF91E2
:10064000BF91AF919F918F917F916F915F914F91EA
:100650003F912F910F900FBE0F901F9018956F93A1
:1006600064E06A95F1F76F910197C9F708952F92A9
:100670008F939F932FB680910B0190910C0101965F
:1006800080930B0190930C0190E080910D01891FE4
:1006900080930D01909113019C5F909313018091C1
:1006A000120180519742C0F0909313018093120180
:1006B00080910E0190910F01019680930E0190930D
:1006C0000F0190E080911001891F809310018091AB
:1006D0001101891F809311012FBE9F918F912F903F
:1006E0001895CF93DF93EC0105C088EE93E00E944C
:1006F0002F0321972097C9F7DF91CF9108950E948A
:1007000071030895DB018F939F930E94B403BF91FF
:10071000AF91A29F800D911DA39F900DB29F900D50
:1007200011240895A1E21A2EAA1BBB1BFD010DC0C6
:10073000AA1FBB1FEE1FFF1FA217B307E407F50791
:1007400020F0A21BB30BE40BF50B661F771F881F6D
:10075000991F1A9469F760957095809590959B0103
:10076000AC01BD01CF0108950E94BF03A59F900D6C
:10077000B49F900DA49F800D911D11240895A29FF8
:10078000B001B39FC001A39F700D811D1124911D65
:10079000B29F700D811D1124911D0895F894FFCF13
:00000001FF
