:100000000C9434000C9451000C9451000C94010594
:100010000C9401050C9401050C9451000C945100B2
:100020000C9451000C941D040C9451000C9451003C
:100030000C9451000C9451000C9451000C945100FC
:100040000C9451000C9451000C948A020C94F0030F
:100050000C9451000C9451000C9451000C945100DC
:100060000C9451000C94510011241FBECFEFD8E026
:10007000DEBFCDBF11E0A0E0B1E0E0E7FDE002C0EF
:1000800005900D92A231B107D9F721E0A2E1B1E0CC
:1000900001C01D92A637B207E1F70E9414010C942B
:1000A000B6060C940000883058F491E001C0990F16
:1000B0008A95EAF7892FAAE2B0E0EBE2F0E021C0EE
:1000C0008E3060F498EF980F81E001C0880F9A9508
:1000D000EAF7A4E2B0E0E5E2F0E013C0853160F4B5
:1000E00092EF980F81E001C0880F9A95EAF7A7E296
:1000F000B0E0E8E2F0E005C080E0A0E0B0E0E0E0E1
:10010000F0E09C91809598239C9390819823908314
:1001100008950E94C7008EE00E9453008FE00E9465
:10012000530080E10E94530081E10E94530021E1CD
:1001300040E16FE08EE00C94F0050F931F93CF9396
:10014000DF93C0E0D0E00E94FA058C01CE010E944E
:10015000F40080E091E00E94E800C8010E94F400F1
:1001600083E091E00E94E80088EE93E00E9465043D
:100170002196C233D10539F7DF91CF911F910F91AD
:100180000C9408060E9479018823E1F30895809178
:10019000350181110EC081E08093350160E875E280
:1001A00080E090E00E94410360E286E391E00C94DD
:1001B0008702089590913501992349F08093560163
:1001C00061E086E591E00E94ED030C94C200089581
:1001D000CF93DF93EC018991882319F00E94DA0014
:1001E000FACFDF91CF910895CF93DF93CDB7DEB7EC
:1001F000A0970FB6F894DEBF0FBECDBF209135019A
:10020000222349F0BE016F5F7F4F0E941B01CE0188
:1002100001960E94E800A0960FB6F894DEBF0FBECC
:10022000CDBFDF91CF9108950E94C7000E94890041
:100230000E949D00FDCFEF92FF920F931F93CF93EB
:10024000DF93CDB7DEB72B970FB6F894DEBF0FBEA6
:10025000CDBF9C018B018BE0E6E0F1E0DE01119661
:1002600001900D928A95E1F7FB0137FF07C03196A7
:100270008DE2DB018C93319521953109C9014AE06A
:10028000E42EF12C3196B7010E942F06CB01009786
:10029000C9F710828AE0E82EF12CC901B7010E944B
:1002A0002F06A1E0B0E0AC0FBD1FA80FB91F8C91C5
:1002B00082939B016115710581F7C8012B960FB6DA
:1002C000F894DEBF0FBECDBFDF91CF911F910F918C
:1002D000FF90EF900895E1ECF0E080818F7D8083C6
:1002E00008952091130181E090911501291380E078
:1002F00008950E9471010895282F30E0F901EE0F52
:10030000FF1F43E0220F331F4A95E1F7E20FF31F6F
:10031000EE5EFE4F408551854115510509F452C0EE
:10032000282F30E0F901EE0FFF1FB3E0220F331F3B
:10033000BA95E1F7E20FF31FEE5EFE4F7281282FB0
:1003400030E0F901EE0FFF1F93E0220F331F9A9563
:10035000E1F7E20FF31FEE5EFE4F9481791790F5FF
:10036000282F30E0F901EE0FFF1FA3E0220F331F0B
:10037000AA95E1F7E20FF31FEE5EFE4F9281490F5F
:10038000511DFA016083282F30E0F901EE0FFF1FA5
:1003900063E0220F331F6A95E1F7E20FF31FEE5E71
:1003A000FE4F92819F5F282F30E0F901EE0FFF1F73
:1003B00043E0220F331F4A95E1F7E20FF31FEE5E91
:1003C000FE4F9283282F30E0F901EE0FFF1FA3E0CC
:1003D000220F331FAA95E1F7E20FF31FEE5EFE4FE7
:1003E0004281282F30E0F901EE0FFF1F63E0220F5A
:1003F000331F6A95E1F7E20FF31FEE5EFE4F948123
:10040000491701F5282F30E0F901EE0FFF1F43E0F7
:10041000220F331F4A95E1F7E20FF31FEE5EFE4F06
:100420009581992379F0282F30E0F901EE0FFF1F15
:1004300083E0220F331F8A95E1F7E20FF31FEE5E90
:10044000FE4F128208959091C1009F779093C10052
:10045000A82FB0E0FD01EE0FFF1F93E0AA0FBB1F16
:100460009A95E1F7EA0FFB1FEE5EFE4F71876087FA
:10047000682F70E0FB01EE0FFF1F53E0660F771F40
:100480005A95E1F7E60FF71FEE5EFE4F1282682FD6
:1004900070E0FB01EE0FFF1F93E0660F771F9A9548
:1004A000E1F7E60FF71FEE5EFE4F4483482F50E062
:1004B000FA01EE0FFF1FA3E0440F551FAA95E1F7C5
:1004C000E40FF51FEE5EFE4F2583282F30E0F90183
:1004D000EE0FFF1F63E0220F331F6A95E1F7E20F73
:1004E000F31FEE5EFE4F8081882329F48091C100C6
:1004F00080688093C100089521E00E94230208953E
:100500009C01462F80E0B9010E947C0208950E9460
:10051000800208951F920F920FB60F9211242F930D
:100520003F934F935F936F937F938F939F93AF937B
:10053000BF93EF93FF936091C60080E00E947C011F
:10054000FF91EF91BF91AF919F918F917F916F91AB
:100550005F914F913F912F910F900FBE0F901F9081
:100560001895282F30E0F901EE0FFF1F93E0220FBE
:10057000331F9A95E1F7E20FF31FEE5EFE4F2681DF
:10058000378121153105B9F1282F30E0F901EE0F3F
:10059000FF1FA3E0220F331FAA95E1F7E20FF31F1D
:1005A000EE5EFE4F4181282F30E0F901EE0FFF1F74
:1005B00063E0220F331F6A95E1F7E20FF31FEE5E4F
:1005C000FE4F93814917B8F4282F30E0F901EE0F60
:1005D000FF1F43E0220F331F4A95E1F7E20FF31F9D
:1005E000EE5EFE4F8081882331F48091C1008062ED
:1005F0008093C10008950E946B010895282F30E078
:10060000F901EE0FFF1F53E0220F331F5A95E1F758
:10061000E20FF31FEE5EFE4F9081992311F498E9EB
:1006200001C098E19093C1000E94B10278940895AE
:10063000EF92FF920F931F937B018C0180E00E9449
:10064000FE02C801B70128EF3FEF4FEF5FEF0E94B6
:100650000B066050734D8E4C9E4FA8019701E4E04D
:10066000220F331F441F551FEA95D1F70E944306FE
:100670003093C5002093C4001F910F91FF90EF901D
:1006800008950E9418030895282F30E0F901EE0F15
:10069000FF1F73E0220F331F7A95E1F7E20FF31F7C
:1006A000EE5EFE4F468157814115510509F458C051
:1006B000282F30E0F901EE0FFF1F93E0220F331FC8
:1006C0009A95E1F7E20FF31FEE5EFE4F6181282F4E
:1006D00030E0F901EE0FFF1FA3E0220F331FAA95B0
:1006E000E1F7E20FF31FEE5EFE4F93816917C0F54D
:1006F0009091C00095FF34C0282F30E0F901EE0F33
:10070000FF1F63E0220F331F6A95E1F7E20FF31F2B
:10071000EE5EFE4F9181490F511DFA019081909339
:10072000C600282F30E0F901EE0FFF1F93E0220FE3
:10073000331F9A95E1F7E20FF31FEE5EFE4F9181B2
:100740009F5F282F30E0F901EE0FFF1FA3E0220F7B
:10075000331FAA95E1F7E20FF31FEE5EFE4F918380
:100760000E94B1020895A2E1B1E0282F30E0F90122
:10077000EE0FFF1F93E0220F331F9A95E1F7E20F70
:10078000F31FEA0FFB1F77836683282F30E0F90100
:10079000EE0FFF1F93E0220F331F9A95E1F7E20F50
:1007A000F31FEA0FFB1F1182282F30E0F901EE0F33
:1007B000FF1F63E0220F331F6A95E1F7E20FF31F7B
:1007C000EA0FFB1F43830E94B10208959C01462F4C
:1007D00080E0B9010E94B30308950E94E6030895E2
:1007E0001F920F920FB60F9211242F933F934F93A6
:1007F0005F936F937F938F939F93AF93BF93EF9389
:10080000FF9380E00E944403FF91EF91BF91AF916D
:100810009F918F917F916F915F914F913F912F9118
:100820000F900FBE0F901F9018956F9364E06A951C
:10083000F1F76F910197C9F708952F928F939F93C6
:100840002FB680911D0190911E01019680931D018C
:1008500090931E0190E080911F01891F80931F01DA
:10086000909125019C5F90932501809124018051F6
:100870009742C0F09093250180932401809120013C
:10088000909121010196809320019093210190E0A5
:1008900080912201891F8093220180912301891F69
:1008A000809323012FBE9F918F912F901895CF9306
:1008B000DF93EC0105C088EE93E00E9415042197B8
:1008C0002097C9F7DF91CF9108950E9457040895AA
:1008D000FC01118210821382128215821482168208
:1008E000683068F489E290E0918380838BE290E045
:1008F000938382838AE290E09583848311C06E3073
:10090000C0F483E290E09183808385E290E093835A
:10091000828384E290E09583848370E06850704025
:1009200081E090E002C0880F991F6A95E2F7868304
:1009300008956531B8F486E290E09183808388E27F
:1009400090E09383828387E290E09583848370E0D4
:100950006E50704081E090E002C0880F991F6A9548
:10096000E2F786830895A7E0B0E0E9EBF4E00C94A9
:100970008006682FCE0101960E94680489819A81C1
:100980008332910531F480916B009F81892B809394
:100990006B0089819A818632910531F480916C00D7
:1009A0009F81892B80936C0089819A81893291057E
:1009B00031F480916D009F81892B80936D00ED81D2
:1009C000FE8190818F818095892380838FEF809332
:1009D00068002796E2E00C949C06A7E0B0E0E3EF05
:1009E000F4E00C948006682FCE0101960E94680402
:1009F000E981FA8190818F8189232796E2E00C9426
:100A00009C061F920F920FB60F921124FF920F9324
:100A10001F932F933F934F935F936F937F938F9386
:100A20009F93AF93BF93EF93FF9380912D010E940B
:100A3000ED04F82E80912F010E94ED04182F809173
:100A40002E010E94ED04082F809130010E94ED04D8
:100A50004091320160913101509134019091330104
:100A6000F41651F020912B0130912C012F5F3F4F54
:100A700030932C0120932B01061751F020912B016C
:100A800030912C012150304030932C0120932B01C8
:100A9000151751F02091290130912A012F5F3F4F06
:100AA00030932A0120932901891751F020912901BF
:100AB00030912A012150304030932A01209329019E
:100AC000EF2DF0E0772767FD7095E617F70759F0EF
:100AD000602F70E0552747FD50956417750719F092
:100AE00021E020932801412F50E0292F332727FDB3
:100AF00030954217530769F0482F50E02091340198
:100B0000332727FD30954217530719F091E0909352
:100B10002701F09231010093320110933301809349
:100B20003401FF91EF91BF91AF919F918F917F9190
:100B30006F915F914F913F912F911F910F91FF9076
:100B40000F900FBE0F901F901895A3E0B0E0EBEA56
:100B5000F5E00C94800680932D0160932E01409364
:100B60002F0120933001F8942B834A8369830E94DC
:100B7000B3046981862F0E94B3044A81842F0E94A6
:100B8000B3042B81822F0E94B30410922C01109287
:100B90002B0110922A011092290110922801109223
:100BA000270180912D010E94ED04809331018091F5
:100BB0002E010E94ED048093320180912F010E944A
:100BC000ED0480933301809130010E94ED04809305
:100BD00034018FEF8BBB78942396E2E00C949C0653
:100BE0000E94A5050895F89480912B0190912C0105
:100BF000789408950E94F3050895F89480912B014C
:100C000090912C0110922C0110922B017894089550
:100C10000E94FD050895DB018F939F930E94650656
:100C2000BF91AF91A29F800D911DA39F900DB29F88
:100C3000900D11240895AA1BBB1B51E107C0AA1FE8
:100C4000BB1FA617B70710F0A61BB70B881F991F6D
:100C50005A95A9F780959095BC01CD01089597FB11
:100C6000072E16F4009407D077FD09D00E941B06CA
:100C700007FC05D03EF4909581959F4F089570959F
:100C800061957F4F0895A1E21A2EAA1BBB1BFD019F
:100C90000DC0AA1FBB1FEE1FFF1FA217B307E4075B
:100CA000F50720F0A21BB30BE40BF50B661F771FB3
:100CB000881F991F1A9469F7609570958095909593
:100CC0009B01AC01BD01CF0108950E94A706A59F1D
:100CD000900DB49F900DA49F800D911D1124089537
:100CE0002F923F924F925F926F927F928F929F923C
:100CF000AF92BF92CF92DF92EF92FF920F931F932A
:100D0000CF93DF93CDB7DEB7CA1BDB0B0FB6F894DA
:100D1000DEBF0FBECDBF09942A88398848885F841A
:100D20006E847D848C849B84AA84B984C884DF808B
:100D3000EE80FD800C811B81AA81B981CE0FD11D6F
:100D40000FB6F894DEBF0FBECDBFED010895A29F90
:100D5000B001B39FC001A39F700D811D1124911D8F
:100D6000B29F700D811D1124911D0895F894FFCF3D
:100D70003A20000D0A0030313233343536373839F5
:020D8000000071
:00000001FF
